:020000040800F2
:100000000008002001C00008D1E40108E1E4010873
:10001000F1E4010801E5010811E50108F194010886
:10002000F1940108F1940108F1940108F194010898
:10003000F1940108F1940108A1A6010811BB01087F
:10004000F1940108A1E40108F1940108F194010878
:10005000F1940108F1940108F1940108F194010868
:10006000F1940108F1940108F1940108B1B5010877
:10007000E1B5010811B6010841B6010871B60108E1
:10008000A1B60108D1B60108F1E30108B1BC01082D
:10009000D1BC0108F1BC010811BD010811E401083F
:1000A00011D80108F1940108F1940108F1940108B4
:1000B00061E4010831E40108F1D70108F194010875
:1000C000F194010881C40108A1C50108F194010857
:1000D000F194010881DB0108A1DB0108C1DB010803
:1000E000F1940108F1940108F1940108F1940108D8
:1000F000F1940108F1940108F194010801B7010895
:10010000F1940108F1940108F1940108F1940108B7
:10011000E1DB010801DC0108F1940108F194010818
:1001200031B7010861B7010891B70108C1B70108EB
:10013000F1B70108F1940108F194010831BD0108FB
:1001400051BD010871BD010891BD0108C1D201086E
:1001500021B8010851B8010881B8010821DC010863
:10016000F1940108F1940108F1940108F194010857
:10017000F1940108F1940108F1940108F194010847
:10018000F1940108F1940108F1940108F194010837
:10019000F1940108F1940108F1940108F194010827
:1001A000F1940108F1940108F1940108F194010817
:1001B000F1940108F1940108F1940108F194010807
:1001C0002DE9F04F2DED068B0446F7B0014685482A
:1001D000854F58F045F82046834915F0E9F836ACCC
:1001E0000025264660B1402D07D044F8040B39465F
:1001F0000020013515F0DCF8F4E77C48002204E02B
:10020000002DFAD17A4802F054B93468A35CA718DB
:1002100043B1C15C01F00301012908BF20333B70E9
:100220000132F2E7734ADFF83082D2F800B0C146FB
:100230001F46BB4513DDD9F80CA0BAF1000F0AD058
:10024000D9F80010204615F053FB20B93146284656
:10025000D04702F035B9013709F11009E9E76649DD
:10026000204615F045FB38BB63F002F89FED638A2A
:1002700060EE087A17EE900A0EF0AEFF02460B46CB
:100280005F4857F0EDFF5EF03BFB60EE087A17EE3B
:10029000900A0EF0A1FF02460B465A4857F0E0FFC5
:1002A0005EF00EFC60EE087A17EE900A0EF094FFF6
:1002B00002460B4654480DE05449204615F018FB01
:1002C00060B962F0FDFB10EE100A0EF085FF0246E9
:1002D0004F480B4657F0C4FF02F0F2B84D49204694
:1002E00015F006FB88B91DA91AF0AAF904461AF000
:1002F0003FF90146484857F0B3FF2146474857F0B9
:10030000AFFF1D99464802F0D9B84649204615F07E
:10031000EFFA002849D14448444E9FED458A454DA7
:1003200057F09EFF444857F09BFF19F089FD0446A3
:1003300020466CF015FED4F824802A6894ED097AE2
:10034000B36A9B1A07EE903AB8EE477AF8EE677AEE
:1003500027EE087A0746C7EE277A17EE900A0EF0C6
:100360003BFFCDE90478CDE90601E36C0393A36973
:10037000029394F82020314B314853F822300193F6
:1003800094F82230013B0093D4E90232214657F021
:1003900067FF00236362204619F062FD04460028CF
:1003A000C6D1B36A2B6002F083B82649204615F007
:1003B0009FFA38B95DF01CFF5DF022FF014622482C
:1003C00002F07CB82149204615F092FA0746002831
:1003D00040F001811E4E3368002B3FD11D4802F0D2
:1003E00068B800BFA2490708F94A0708F10F0708D3
:1003F000AA490708A42F0020BF49070800007A4433
:10040000D1490708EE490708144A0708394A07087E
:100410003C4A07085A4A07085E4A07087A4A07080A
:10042000904A07080B640708AD4A0708A81800207F
:100430000000C842A02F0020FB4A0708B0B20708FE
:10044000494B070862AF070804770708CE62070820
:1004500028320020804B0708A82F00205DF0C8FE3E
:100460005DF0CEFE01469548954DDFF8E8A257F0C5
:10047000F7FE944857F0F4FE3368BB4242F3208005
:100480004FF04C0808FB07F805EB080460785DF0B6
:10049000B7FE0146504657F0E3FE15F808108A48AB
:1004A00057F0DEFE60680EF097FE02460B46874866
:1004B00057F0D6FEA0680EF08FFE02460B46844829
:1004C00057F0CEFEE0680EF087FE02460B468148EC
:1004D00057F0C6FE60690EF07FFE02460B467E486E
:1004E00057F0BEFEA0690EF077FE02460B467B4831
:1004F00057F0B6FEE1697A4857F0B2FE216A7948B2
:1005000057F0AEFED4ED0B7A94ED057A7648F8EE0E
:10051000E77A67EE877AFDEEE77A17EE901A57F0E2
:100520009FFE616A714857F09BFEA16A704857F0C0
:1005300097FEE16A6F4857F093FE216B6E4857F0C3
:100540008FFE606B0EF048FE02460B466B4857F07C
:1005500087FE6378032B06D1A06B24F049FC01468B
:10056000674857F07DFE4C2404FB0754E36B6BB3E4
:1005700064491DA810F004FDE16B0DF1870010F037
:10058000FFFC236C1BB91DA857F06AFE1EE0236C0C
:10059000012B08D1606C0EF01FFE02460B461DA811
:1005A00057F05EFE12E0236C022B0FD1606CA46C3E
:1005B0000EF012FE8046204689460EF00DFE4246A1
:1005C000CDE900014B461DA857F04AFE4E4857F0B2
:1005D00047FE013750E74D49204615F089F90028BC
:1005E0005CD172B64A4B5A6A12924A4A516A1391C6
:1005F000596A14914FF08041496A15911968C1F305
:10060000001116911168C1F300111D9162B64248A4
:10061000D3F834A0D3F83890D3F83C80DC6A576B19
:100620001E6C956B129957F01BFE13993B4857F0BF
:1006300017FE15993A4857F013FE139A1299149B16
:10064000384801EB4201194401EBD171A4EB61017F
:1006500057F006FE5146344857F002FE49463348EB
:1006600057F0FEFD4146324857F0FAFD2146314829
:1006700057F0F6FD1699304857F0F2FD1D992F48B6
:1006800057F0EEFD39462E4857F0EAFD31462D4829
:1006900057F0E6FD2C48294601F010BF2B492046B3
:1006A00015F026F9002857D15DF0A2FF10EE100AD0
:1006B0000EF092FD02460B4625480BE6A44B0708B8
:1006C0002C320020B64B0708FF4B0708154C0708D3
:1006D0002D4C0708454C07085D4C0708754C07086A
:1006E0008D4C0708A34C0708B94C0708CF4C0708E6
:1006F000E54C0708FB4C0708114D0708274D070874
:100700003F4D0708554D0708F94A0708694D070886
:1007100000000140000401406D4D07087A4D0708B4
:10072000874D0708944D0708A74D0708B74D0708E0
:10073000C74D0708D74D0708DF4D0708E84D0708E4
:10074000F14D0708044E0708194E07082F4E0708F9
:10075000344E0708E94B0708BA49204615F0C8F897
:10076000002840F0DA80042D40F0D480B64BB74921
:100770007068119311AA1293139312F011FBB349ED
:10078000B0689FEDB38A12AA12F00AFBAF49F06875
:1007900013AA12F005FBAF4857F062FDDDED117AA8
:1007A000F5EEC07AF1EE10FAF2EE048A6FDD5DF03C
:1007B000E7FC9DED110AD0ED007AF4EEC07AF1EE7F
:1007C00010FA64DDDDED120AF4EEE80AF1EE10FA3B
:1007D0005DDDDFEDA17AF4EEE70AF1EE10FA56D511
:1007E0009DED131AB4EEC81AF1EE10FA4FDDDFEDED
:1007F0009B7AB4EEE71AF1EE10FA48D516AB1DAAB3
:1008000015A914A802F088F900283DD014980EF01C
:10081000E3FC02460B46924857F022FD15980EF075
:10082000DBFC02460B468F4857F01AFD169B03333C
:10083000032B01F24586DFE803F0242104028A48F5
:1008400000E08A4857F00CFD9DF97B3004939DF938
:100850007A3003939DF9793002939DF978300193B2
:100860009DF9773000939DF975209DF976309DF9BB
:1008700074107F4857F0F4FC01F022BE7D4801F06F
:1008800018BE7D4801F015BE7C4801F012BE7C48C0
:1008900057F0E6FCDDED117AF5EEC07AF1EE10FAD4
:1008A0000ADC5DF06DFC00680EF096FC02460B461B
:1008B000744857F0D5FC0AE05DF062FCDDED117A7A
:1008C00090ED007AB4EEE77AF1EE10FAE9DDDDEDB5
:1008D000127AF4EEE87AF1EE10FA06DD9FED5E7A18
:1008E000F4EEC77AF1EE10FA02D4674857F0B8FC7C
:1008F000DDED137AF4EEC87AF1EE10FA07DD9FED24
:10090000577AF4EEC77AF1EE10FA01F1D1855F481B
:1009100001F02AB85E4801F0CCBD5E49204614F0D3
:10092000E7FFC8B91DA862F0B3FC1D980EF054FC97
:1009300002460B46584857F093FC1E980EF04CFCAC
:1009400002460B46554857F08BFC1F980EF044FCAE
:1009500002460B465248BDE45249204614F0C8FFF7
:100960000746002840F0B080022D40F0B580364B9D
:1009700036497068159315AA12F012FA6BF078FBDD
:1009800004465DF0FDFB4FF433720146204614F03F
:10099000B7F9454857F064FCDDED157AF5EEC07AFD
:1009A000F1EE10FA4FF0000642DD94ED007AF4EE1D
:1009B000C77AF1EE10FA3BD834F07AFA002833D037
:1009C00094F88E8084F88E5020465FF069FE9DED8D
:1009D000150A169614AB1DAA16A901201D968DF8AE
:1009E000507068F06DFB204684F88E805FF058FEF2
:1009F00016980EF0F1FB02460B462C4857F030FCDF
:100A00001D980EF0E9FB02460B46294857F028FCDA
:100A10009DF85010274A284B284800290CBF114642
:100A2000194657F01DFC0BE0254857F019FC07E06C
:100A300020680EF0D1FB02460B46224857F010FC0E
:100A4000204649E2494E0708000080BF564E07087D
:100A50000AD7A33C594E070800803B45CDCC4C3FFC
:100A60007A4E0708974E0708AD4E0708E94E07086B
:100A7000C94E0708074F0708354F0708644F070896
:100A80009C4F0708B04F0708D54F0708F64F0708D7
:100A900018500708545007085C50070872500708A0
:100AA00090500708AB500708BE500708D3500708FE
:100AB000E35007089849070893490708F3500708C7
:100AC0000251070818510708A949204614F010FFE1
:100AD00000285AD1022D02D0A64801F0EABCA64B4C
:100AE000A6497068169316AA12F05AF96BF0C0FA6C
:100AF00004465DF045FB4FF433720146204614F086
:100B0000FFF86BF0B5FA06465DF03AFB4FF433722E
:100B10000146304614F0F4F8994857F0A1FBDDED9A
:100B2000167AF5EEC07AF1EE10FA25DD94ED007A32
:100B3000F4EEC77AF1EE10FA1ED8204684F88E50F3
:100B40005FF0AEFD00239DED160A1D931DAA012145
:100B50004FF4FA6068F0B4FD40B91D980EF03CFB0C
:100B600002460B46874857F07BFB72E0C0B25DF04F
:100B700047FB0146844867E020680EF02DFB0246E3
:100B80000B46824857F06CFB66E08149204614F022
:100B9000AFFE002868D1022D7DD1774B7749706870
:100BA000149314AA12F0FCF87A4857F059FBDDEDC3
:100BB000147AF5EEC07AF1EE10FA52DD9FED827AEA
:100BC000F4EEC77AF1EE10FA4BD86BF051FA044606
:100BD0005DF0D6FA4FF433720146204614F090F8D7
:100BE0006BF046FA06465DF0CBFA4FF433720146DD
:100BF000304614F085F8204684F88E505FF050FDA2
:100C00009DED140A1DAB16AA15A94FF4C87068F023
:100C100017FEA0B91D980EF0DFFA80461598894698
:100C20000EF0DAFACDE9020116980EF0D5FA424636
:100C3000CDE900014B46584857F012FB09E0C0B21D
:100C40005DF0DEFA0146554857F00AFB544857F06C
:100C500007FB30465FF024FD20466BF039FA304642
:100C60003AE1504801F025BC4F49204614F040FEBF
:100C7000A0B14E49204614F03BFE002800F0DA8077
:100C80004B49204614F034FE0746002840F00A8203
:100C9000022D00F02581474801F00BBC052D40F0E6
:100CA000C680354B35497068139313AA1493159376
:100CB000169312F075F83149B0689FED3F8A14AA77
:100CC00012F06EF82D49F06815AA12F069F82B4958
:100CD000306916AA12F064F8384857F0C1FADDED11
:100CE000137AF5EEC07AF1EE10FA2BDD5DF048FADA
:100CF0009DED130AD0ED007AF4EEC07AF1EE10FA11
:100D000020DB9DED151AB5EEC01AF1EE10FA19DDD3
:100D1000DDED140AF4EEC80AF1EE10FA12DDDFED93
:100D20002A7AF4EEE70AF1EE10FA0BD8DDED161A86
:100D3000F5EEC01AF1EE10FA04DB1DA802F08EF8F1
:100D40001D9877E11E4857F08BFADDED137AF5EE2A
:100D5000C07AF1EE10FA39DC5DF012FA00680EF09C
:100D60003BFA02460B46174857F07AFA39E000BFC3
:100D70008251070853510708000080BF564E0708EC
:100D80008E510708A6510708BC51070818510708DB
:100D9000225207082E5207084652070879520708C0
:100DA000EB510708A652070807530708085407081D
:100DB000B6540708DB5207080AD7A33C17530708A5
:100DC00045530708B04F07086666663F5DF0D8F9DF
:100DD000DDED137A90ED007AB4EEE77AF1EE10FAD9
:100DE000BADBDDED147AF4EEC87AF1EE10FA06DD26
:100DF0001FED0B7AF4EEC77AF1EE10FA02D996489D
:100E000057F02EFADDED157AF5EEC07AF1EE10FA14
:100E100002DC924857F024FADDED167AF5EEC07A3E
:100E2000F1EE10FA81F244838D4800F09DBD8D48AB
:100E300001F03FBB6BF01CF904465DF0A1F94FF4E3
:100E400033720146204613F05BFF6BF011F9054643
:100E50005DF096F94FF433720146284613F050FFC7
:100E6000022384F88E3020465FF01AFC7E4857F04B
:100E7000F7F900231DAA16A915A8159316931D931B
:100E800069F076F8B8B915980EF0A6F902460B4647
:100E9000764857F0E5F916980EF09EF906461D982B
:100EA0000F460EF099F93246CDE900013B467048F5
:100EB00057F0D6F909E0C0B25DF0A2F901466D48DD
:100EC00057F0CEF96C4857F0CBF928465FF0E8FBB5
:100ED00020466BF0FDF828466BF0FAF801F0F0BA06
:100EE000664B674970681D931DAA11F059FF65484C
:100EF00057F0B6F9DDED1D7AF5EEC07AF1EE10FA95
:100F000040F3A6809FED607AF4EEC77AF1EE10FA16
:100F100000F29E806BF0ACF804465DF031F94FF4BE
:100F200033720146204613F0EBFE6BF0A1F8064643
:100F30005DF026F94FF433720146304613F0E0FEBF
:100F4000022384F88E3020465FF0AAFB1EF0A0F842
:100F500080461EF0A5F8B0EE40AA1EF0A9F8814622
:100F60001EF05EF89FED490A9FED498A00214EF67A
:100F700060201EF03DF807EE907AF8EEE77A87EEF3
:100F8000880ADDED1D7A20EE270A5EF031F95DF06A
:100F90002FF9054660B19FED3D8A4FF47A77F0EE68
:100FA000488AF0EE489AB0EE489AF7EE00AA06E0BA
:100FB000C820013718F014FE642FDCD1EBE767F08E
:100FC000FFFF39EE009A5DF0FBF979EE809A5DF053
:100FD0008FFA0A2038EE008A18F002FE013F78EE00
:100FE000AA8AECD15EF03CFCB7EE000A5DF058F93D
:100FF00030465FF055FB20466BF06AF830466BF0E8
:1010000067F84946B0EE4A0A40461DF0F1FF94EDFC
:10101000376AB5B9C9EEA87A9FED1E7AC8EE286A7C
:1010200067EE877A89EE287AA6EE667AC7EE277A87
:1010300017EE900A0EF0D0F802460B461648FFF75E
:1010400049B928465DF0DCF80146144800F0B6BF07
:10105000134801F02EBA00BF5A5307087C53070803
:101060009A530708BE530708185407083F54070847
:10107000545407087A540708EB510708000080BF52
:10108000564E0708CA5407086666663F000000000F
:101090000000C8425077D63D31530708E85407088E
:1010A000155507089249204614F022FC002840F00C
:1010B000F380062D40F0ED808E4B8F4970680E93C3
:1010C0000EAA0F9310931193129311F069FE8A499F
:1010D000B0689FED8A8A0FAA11F062FE8649F06817
:1010E00010AA11F05DFE8449306911AA11F058FE72
:1010F0008149706912AA11F053FE814857F0B0F887
:10110000DDED0E7AF5EEC07AF1EE10FA72DD5DF0EB
:1011100037F89DED0E0AD0ED007AF4EEC07AF1EECC
:1011200010FA67DB9DED101AB5EEC01AF1EE10FA59
:101130004FF000035EDDDDED0F0AF4EEC80AF1EEBC
:1011400010FA57DDDFED6F7AF4EEE70AF1EE10FAF0
:1011500050D8DDED111AF5EEC01AF1EE10FA49DBA8
:101160009DED122AB5EEC02AF1EE10FA42DB0DF128
:1011700037061DAD16AC1393149315930296019583
:1011800000940DF1360315AA14A913A802F05AF819
:1011900048BB9DF836301BB39DF837301D980A9335
:1011A0000EF01AF8CDE9080116980EF015F8CDE901
:1011B000060115980EF010F8CDE9040114980EF010
:1011C0000BF8CDE9020113980EF006F84E4B4F4A8A
:1011D000CDE900014E494F4857F042F801F070B98F
:1011E0004D4801F066B9C0B25DF00AF801464B48BF
:1011F00000F0E4BE4A4857F033F8DDED0E7AF5EE24
:10120000C07AF1EE10FA0ADC5CF0BAFF00680DF06B
:10121000E3FF02460B46434857F022F80AE05CF031
:10122000AFFFDDED0E7A90ED007AB4EEE77AF1EEE5
:1012300010FAE9DBDDED0F7AF4EEC87AF1EE10FA80
:1012400006DD9FED307AF4EEC77AF1EE10FA02D99E
:10125000354857F005F8DDED107AF5EEC07AF1EE7D
:1012600010FA02DC314856F0FBFFDDED117AF5EEA5
:10127000C07AF1EE10FA02DA2D4856F0F1FFDDEDFA
:10128000127AF5EEC07AF1EE10FA81F21181294856
:101290006AE3294801F00DB92849204614F028FBDB
:1012A00030B9274856F0DCFF69F0FAFC01F000B9CC
:1012B0002449204614F01CFB00284BD1224856F04C
:1012C000CFFF012069F03CF8011E0DDB5CF058FFF8
:1012D00004465CF04DFF851E69426941204601F0DD
:1012E000D5FB1A4801F0E5B8194801F0E7B800BF8E
:1012F00049550708000080BF564E07080AD7A33C8F
:10130000625507086666663F85550708A3550708B6
:10131000C3550708E35507084156070860560708F4
:1013200045530708B04F07085A5307088F56070858
:101330009A530708B7560708DB56070839570708B6
:10134000435707084E570708595707087D5707089E
:1013500084570708A449204614F0CAFA002840F030
:10136000DB8006221146A14856F07AFFA049A14829
:1013700056F076FFA048C47E837C427C017C0894B2
:10138000847E0794447E0694047E0594C47D049470
:10139000847D0394447D0294047D0194C07C00907C
:1013A0009648974C56F05CFF964B974A1978974BA6
:1013B000974800290CBF1146194656F051FF954831
:1013C00056F04EFF5DF0ACFE0146934856F048FFE4
:1013D00021699248636956F043FF94F8A010904841
:1013E00049B256F03DFF94F80E128E4856F038FF81
:1013F00094F80D128C4856F033FF5CF0B9FE821E53
:101400005342534113A914AA12A867F019FB12986A
:101410000DF0E2FE044614980D460DF0DDFECDE918
:10142000020113980DF0D8FE2246CDE900012B46AB
:101430007E4856F015FF5CF09BFE811E4B424B41EF
:101440001DAA16A915A867F02BFB15980DF0C4FE70
:1014500004461D980D460DF0BFFECDE90201169819
:101460000DF0BAFE2246CDE900012B46704856F039
:10147000F7FE5CF07DFE0238434243411DAA16A9E7
:1014800015A867F025FB15980DF0A6FE04461D98DB
:101490000D460DF0A1FECDE9020116980DF09CFE5F
:1014A00022462B46CDE90001624856F0D9FE59F09C
:1014B00037F80146604856F0D3FE59F021F901464D
:1014C0005E4856F0CDFE44A3D3E900235C4856F0B5
:1014D000C7FE43A3D3E900235A4856F0C1FE5A4B36
:1014E0005A48002256F0BCFE6AF072FE04466AF0CA
:1014F0005FFE214602460923554856F0B1FE6AF0C8
:101500007FFE04466AF05CFE0223024621465148F3
:1015100056F0A6FE00F0CCBF4F49204614F0E8F983
:10152000002840F0A780032D52D14C4B4C497068E5
:10153000169316AA1D9311F033FC4949B0681DAAF1
:1015400011F02EFC474856F08BFEDDED167AF5EED5
:10155000C07AF1EE10FA1ADD5CF012FEDDED167ABB
:1015600090ED007AB4EEE77AF1EE10FA0FDBDDEDE4
:101570001D7AF5EEC07AF1EE10FA08DB1DF050FD91
:10158000DDED1D0A9DED160A5EF072F8A7E0364803
:1015900056F066FEDDED167AF5EEC07AF1EE10FA41
:1015A0000ADC5CF0EDFD00680DF016FE02460B460D
:1015B0002E4856F055FEACE05CF0E2FDDDED167A0B
:1015C00090ED007AB4EEE77AF1EE10FAE9DBA0E0F4
:1015D000274800F06EBF00BF0000002000C869402F
:1015E0000000004066E64E4097570708A1570708DD
:1015F00033710708B1570708007AFF1FBE57070865
:101600000000001098390020265807089E49070856
:1016100000580708185807082958070839580708B4
:10162000495807085A5807086B5807087C58070894
:10163000A0580708C4580708F158070807590708B1
:101640001E5907084059070800807640625907086C
:1016500075590708A1590708CE590708000080BF2F
:10166000564E0708DB59070845530708B04F0708CF
:10167000155A0708BE49204614F03AF9002855D1FA
:10168000032D50D1BB4BBC497068169316AA1D930D
:1016900011F086FBB849B0681DAA11F081FBB7486C
:1016A00056F0DEFDDDED167AF5EEC07AF1EE10FAB9
:1016B0001BDB9FEDB37AF4EEC77AF1EE10FA14D883
:1016C000DDED1D7AF5EEC07AF1EE10FA0DDB1DF0BE
:1016D000A7FCDDED1D0A9DED160A5EF049F85CF0F1
:1016E00087FD002800F0EC8601E1A64856F0B8FD21
:1016F000DDED167AF5EEC07AF1EE10FA06DB9FED1D
:10170000A07AF4EEC77AF1EE10FA02D99E4856F0AC
:10171000A7FDDDED1D7AF5EEC07AF1EE10FA80F24C
:10172000C7869A4820E19A4800F0C3BE99492046EE
:1017300014F0DEF808BB022D1CD14FF0FF339649A0
:1017400070681D931DAA11F02BFB944856F088FD7C
:101750001D9B002B0BDB382216A829468DF858203C
:101760008DF8593056F044FD8D4800F0A2BE8D48EA
:1017700000F09FBE8C4800F09CBE8C49204614F0BF
:10178000B7F8002837D1022D7FF4A6A9794B7A4902
:101790003798169316AA11F003FB854856F060FDA2
:1017A000DDED167AF5EEC07AF1EE10FA40F3BC8466
:1017B0005CF0E6FC9DED160AD0ED007AF4EEC07AFE
:1017C000F1EE10FAC0F2B08401211DAA084602F021
:1017D00085F850B91D99002900F03D82012900F0DB
:1017E0004182022940F0498243E2C0B25CF008FD28
:1017F00001467048E2E37049204614F079F8002869
:1018000040F0F380042D40F0ED805A4B5A49379850
:10181000159315AA16931D9311F0C2FA56493898DC
:1018200016AA11F0BDFA544939981DAA11F0B8FA58
:10183000624856F015FD9DED158A5CF0A1FCD0EDD7
:10184000007AB0EEC88AB4EEE78AF1EE10FA61D8F9
:10185000DDED1D7AF5EEC07AF1EE10FA5ADB9FED60
:10186000587AF4EEC77AF1EE10FA53D89DED167A55
:10187000DFED547AB4EEE77AF1EE10FA3CD81DF0C1
:10188000CFFBDDED1D0A9DED150A5DF031FF5CF02B
:10189000AFFC002800F0A98429E01420013418F0DE
:1018A0009FF9C82C0DD1DDED167A77EEC87A2C465B
:1018B00017EE900A0DF090FC02460B46304656F0AB
:1018C000CFFC38EE288ADDED167AF4EEC87AF1EE18
:1018D00010FA18DD1DF0A4FBDDED1D0A9DED150AC3
:1018E0005DF006FF5CF084FC05460028D5D05CF076
:1018F00087FC0146344861E39FED348A344EDFEDC6
:10190000358A0024DFE79FED310A5DF0B1FD3248F2
:1019100000F0CFBD1B4856F0A3FC9DED158A5CF08E
:101920002FFCD0ED007AB0EEC88AB4EEE78AF1EE73
:1019300010FA09D95CF024FC00680DF04DFC024659
:101940000B46264856F08CFCDDED1D7AF5EEC07A8C
:10195000F1EE10FA07DB9FED1A7AF4EEC77AF1EE9A
:1019600010FA40F2A5851E4856F07AFC00F0A0BDA2
:101970004A5A0708000080BF564E07085C5A0708FD
:101980006666663F45530708795A07087C5307087F
:101990009A5A0708CC5A0708A04C0708E05A0708CB
:1019A000045B07080B5B0708345B0708635B0708E9
:1019B0007C5B07081A5C0708445C0708585C07084A
:1019C0000000B443BD378635F35907080000000016
:1019D0007B5C07086F12033B8A5C0708905C070872
:1019E000AF5C0708C04800F064BDC049204613F052
:1019F0007FFF002840F0AB80022D40F0B180BC4B4F
:101A0000BC4937981D931DAA11F0CAF9BA4856F07F
:101A100027FCDDED1D7AF5EEC07AF1EE10FA40F309
:101A200048815CF0A5FB01219DED1D0A0646084694
:101A30001CF0EEFD01460546B04856F011FC0120B1
:101A40005CF08EFB002D65DBAD489FEDAE8A56F055
:101A500007FC5CF095FB044600680DF0BDFB0246F8
:101A60000B46A94856F0FCFBD4ED377A67EE887A2E
:101A700017EE900A0DF0B0FB02460B46A34856F055
:101A8000EFFB94ED357ADFEDA27A67EE277A17EE59
:101A9000900A0DF0A1FB02460B469E4856F0E0FB73
:101AA000D4ED387A67EE887A17EE900A0DF094FB41
:101AB00002460B46984856F0D3FB984B94F85011C9
:101AC000974A984800290CBF1146194656F0C8FBA2
:101AD00094F8503143B1D4F854010DF07DFB024627
:101AE0000B46914856F0BCFB94F830310BB98F4847
:101AF00026E094F83031022B01D18D4820E094F893
:101B00003031012B01D18B481AE029468A4856F022
:101B1000A7FB17E015F10A0F01D188480DE015F178
:101B20000B0F01D1864808E06435E8B25CF068FB31
:101B30000146844856F094FB834856F091FB834855
:101B400056F08EFB30465CF00BFB00F0B9BC8049D0
:101B5000204613F0CDFE002840F0AD80022D02D0CB
:101B60007C4800F0A6BC624B624937981D931DAAC1
:101B700011F016F9604856F073FB9DED1D0AB5EEA5
:101B8000C00AF1EE10FA40F394809FED732A002111
:101B9000F0EE421AB0EE421AF0EE420A01201CF0BA
:101BA000CFFF054601466D4856F05AFB002D67DB16
:101BB00053489FED548A56F053FB5CF0E1FA04461B
:101BC00000680DF009FB02460B464F4856F048FBF3
:101BD000D4ED377A67EE887A17EE900A0DF0FCFAAA
:101BE00002460B46494856F03BFB94ED357ADFED53
:101BF000487A67EE277A17EE900A0DF0EDFA024662
:101C00000B46574856F02CFBD4ED387A67EE887AAD
:101C100017EE900A0DF0E0FA02460B463E4856F0E9
:101C20001FFB3E4B94F850113D4A3E4800290CBF23
:101C30001146194656F014FB94F8503143B1D4F8CC
:101C400054010DF0C9FA02460B46374856F008FB1E
:101C500094F8303113B9354800F02BBC94F830318A
:101C6000022B02D1324800F024BC94F83031012B11
:101C700002D1304800F01DBC29462F4800F01EBCA0
:101C800015F10A0F01D12D480EE015F10B0F01D10E
:101C90002B4809E005F16400C0B25CF0B1FA0146DE
:101CA000284856F0DDFA284856F0DAFA274800F0BE
:101CB00000BC2C48FDE32C49204613F019FE0028F7
:101CC00058D12A4B986A0DF065FA05A3D3E9002391
:101CD0000DF008FC02460B462548FEF7FBBA00BF94
:101CE000000000000088C340D35C0708105D0708AF
:101CF000000080BF564E0708255D07083A5D0708BB
:101D0000455D070800007A446E5D07088B5D070893
:101D100000247449AB5D0708C95D070893490708AB
:101D200098490708E85D0708015E0708995B0708FE
:101D3000C35B0708E45B0708055C0708215E07082A
:101D4000415E07086D5E0708EB510708975E0708BC
:101D5000195F0708E35E070800000000325F07080C
:101D60003A5F0708AA5E07085C5F0708A81800200A
:101D7000635F0708D149204613F0BAFD07460028E3
:101D800040F0DC81022D7EF4A7AECD4BCD493798D3
:101D9000159315AA11F004F8CB4856F061FADDED61
:101DA000157AF5EEC07AF1EE10FA40F3BD815CF0E1
:101DB000E7F9DDED157A90ED007AB4EEE77AF1EE11
:101DC00010FAC0F2B1815CF0FBF96AF051F90646F5
:101DD0005CF0D6F94FF433720146304612F090FFB2
:101DE00096F88E9086F88E5030465EF059FCB749D2
:101DF000B748DFEDB88A9FEDB88A58F091FAB74836
:101E000058F0BEFAB64858F0BBFAB64858F0B8FADF
:101E1000B54858F0B5FA1DF003F95CF0E1F907EEAA
:101E2000107ADDED157AB8EEC70AF0EE480A20EE1A
:101E3000270A80EE280A5DF05BFC5CF0D9F90546C4
:101E400060B35CF095F9831ED3F1000A4AEB030AF4
:101E5000D6F8741250466BF033F81C220021044669
:101E600016A811F0ADF8DFF8BCC2BCE80F000DF108
:101E7000740847460FC79CE80F0087E80F00002D45
:101E800040F084809FED948ADFED989A9FED989AB8
:101E9000DFED988A2F464FF4347B67E00A20013744
:101EA00017F09EFEB7F57A7FB5D1CAE7062F05DC9D
:101EB00016AB03EB870383ED008A0137424600230C
:101EC00052F8041BA1425BD148F82340002058F08F
:101ED00077FA04F0010300EE903AF8EEE00AB0EE73
:101EE000480A60EEA90A58F07BFA012058F068FA17
:101EF000C4F3400300EE903AF8EEE00AB0EE480A70
:101F000060EE890A58F06CFA022058F059FAC4F3CE
:101F1000800300EE903AF8EEE00AB0EE480A60EE78
:101F2000A80A58F05DFA032058F04AFA07EE904AE2
:101F3000B0EE480AF8EEE70A58F052FAF7EE007AE7
:101F400038EE278A1DF06CF85CF04AF99DED150A11
:101F5000F0EE480A5DF0CCFB5CF04AF90546A8B902
:101F6000C82017F03DFEBBF1010B0FD0D6F874125C
:101F700050466AF0A5FF2546A8420446A6D095E73C
:101F80000131A1D00133082B9AD19FE75CF028F9E9
:101F90005DF066FCB7EE000A5CF082F9304686F828
:101FA0008E905EF07DFB30466AF092F85CF010F99E
:101FB00045B1E8B25CF024F901464F4856F050F9BB
:101FC0004E4876E22B46294658F8042B013301325D
:101FD00018BF0131082BF7D1062909D1484856F01E
:101FE0003FF99FED3D8A9FED479A474E16AC03E0BF
:101FF000464856F035F9F4E794ED000AD4ED010AAD
:102000006AF06EF9F0EEC08A18EE900A0DF0E4F86E
:10201000013502460B463046294656F021F9F4EECA
:10202000498AF1EE10FAF4EE488A48BFB0EE689A99
:10203000F1EE10FAC8BFB0EE688A062D04F1040470
:10204000DAD138EE498AF6EE007A68EE277A17EE92
:10205000900A07EE100AF1EE047AB4EEE77AF1EE98
:1020600010FA05D50DF0B8F802460B46284820E0D6
:10207000F2EE047AB4EEE78AF1EE10FA05D50DF02F
:10208000ABF802460B46234813E0F2EE0E7AB4EEAC
:10209000E78AF1EE10FA05D50DF09EF802460B46E0
:1020A0001D4806E018EE100A0DF096F802461B488F
:1020B0000B4656F0D5F81A48FBE100BF735F0708DE
:1020C000000080BF564E0708805F0708A25F070820
:1020D000B45F070800007A4400000000BA5F0708F8
:1020E000C15F0708C85F0708CF5F07085C8F823FA2
:1020F000B81E853F14AE873FD85F0708EB5107082D
:10210000076007080000614474600708366007082C
:102110008F600708C9600708106107085E6107083B
:10212000DA610708E00807085CF02AF800680DF09B
:1021300053F802460B463C48FEF7CCB83B492046D4
:1021400013F0D6FB0646E8B95CF01AF83146B0F851
:10215000C85230465FF074F8074623F069FBB0F8C8
:102160006C81304623F04CFCADB204463A46294619
:102170002F4856F075F82F482246414656F070F821
:102180002D4896E12D49204613F0B2FB10B923F0FB
:1021900047F895E12A49204613F0AAFB48BB032DD6
:1021A00040F08E81274B28491D9016AA3798169328
:1021B00010F0F6FD254938981DAA10F0F1FD9DEDAF
:1021C000160ADFED237AB4EEE70AF1EE10FA0EDD1F
:1021D000DFED207AB4EEE70AF1EE10FA07D51D988C
:1021E000003818BF01205EF0B3FA1B4861E11B48BC
:1021F0005FE11B49204613F07BFB60B919491A487F
:1022000056F02EF819491A4856F02AF819491A4872
:1022100056F026F84CE11949204613F069FB78BBCB
:1022200072B600BFFDE700BF185107081C6207081F
:10223000206207084D6207087B620708C46207082E
:10224000D56207080000FAC3564E0708A04C0708DD
:102250000000B4C30000B443775C0708EB620708D2
:10226000FE620708066307080B6307081A6307087E
:102270004363070852630708596307086863070840
:102280009249204613F034FB0546002840F01481A3
:102290008F48904F904E914C55F0E2FF8B4855F08F
:1022A000DFFF8F4855F0DCFF8E4855F0D9FF8E4890
:1022B00055F0D6FF8D4855F0D3FF8D4855F0D0FF2F
:1022C0008C4855F0CDFF8C4855F0CAFF8B4855F02F
:1022D000C7FF8B4855F0C4FF8A4855F0C1FF8A48B4
:1022E00055F0BEFF894855F0BBFF894855F0B8FF4F
:1022F000884855F0B5FF884855F0B2FF874855F03B
:10230000AFFF874855F0ACFF864855F0A9FF8648D7
:1023100055F0A6FF854855F0A3FF854855F0A0FF6E
:10232000844855F09DFF844855F09AFF834855F046
:1023300097FF834855F094FF824855F091FF8248FB
:1023400055F08EFF814855F08BFF814855F088FF8E
:10235000804855F085FF804855F082FF7F4855F052
:102360007FFF7F4855F07CFF7E4855F079FF7E481F
:1023700055F076FF7D4855F073FF7D4855F070FFAE
:102380007C4855F06DFF7C4855F06AFF7B4855F05E
:1023900067FF734855F064FF794855F061FF79484D
:1023A00055F05EFF784855F05BFF784855F058FFD0
:1023B000774855F055FF774855F052FF764855F06D
:1023C0004FFF764855F04CFF754855F049FF75486A
:1023D00055F046FF744855F043FF744855F040FFF0
:1023E000734855F03DFF734855F03AFF724855F079
:1023F00037FF724855F034FF714855F031FF71488E
:1024000055F02EFF704855F02BFF704855F028FF0F
:102410006F4855F025FF6F4855F022FF6E4855F084
:102420001FFF6E4855F01CFF6D4855F019FF6D48B1
:1024300055F016FF6C4855F013FF6C4855F010FF2F
:102440006B4855F00DFF6B4855F00AFF6A4855F090
:1024500007FF6A4855F004FF694855F001FF6948D5
:1024600055F0FEFE684855F0FBFE684855F0F8FE52
:102470003B68AB421CDDD8F80C30ABB1D8F8082073
:10248000D8F800101AB1624855F0EAFE02E008469A
:1024900055F0E6FED8F8041019B1204655F0E0FEDC
:1024A00002E0304655F0DCFE013508F11008DFE7A8
:1024B000584855F0D5FE03E05748214655F0D0FE68
:1024C00077B0BDEC068BBDE8F08F00BF92630708C4
:1024D00072630708A42F0020F06D070881740708B5
:1024E00086630708BF49070897630708394A070842
:1024F000C46307085A4A0708EC6307080B64070817
:102500000064070862AF070813640708CE62070873
:1025100033640708694D0708746407082F4E0708DD
:1025200094640708B0640708DC6407081F6507089F
:102530005A650708545007087F6507089C65070817
:10254000B9650708FA650708106607084D660708A9
:1025500060660708B4660708EC6607082C6707087A
:1025600056670708085407088B670708E1670708DC
:10257000FC6707083368070884680708C16807080C
:1025800039570708FE6807084E57070820690708EB
:10259000975707084C690708766907089469070880
:1025A000C3690708E3690708126A0708306A070861
:1025B000576A07087A6A0708BD6A0708F26A0708B7
:1025C0003D6B0708646B07088C6B0708E26B070814
:1025D0000E6C0708696C07085C5F0708A26C0708A7
:1025E000D46C0708EB6C07081C620708216D07080C
:1025F000C4620708356D07085F6D0708896D070815
:10260000FE620708A76D070868630708C76D07081B
:10261000EA6D0708F94A07081F6E07080000000066
:1026200037B502EB410294B2054601A920466AF093
:102630003FFF08B100200FE001340DF10601A0B208
:102640006AF036FF0028F5D1BDF80420BDF8063049
:1026500043EA02432B60012003B030BD70B505464C
:1026600041F288300E4614465CF062FD5CF068FD75
:10267000B0EE080A5CF06CFD30B304EB46046AF07F
:10268000FFFBA4B21CF034FD6DF05AFCF2206DF09B
:102690006FFC290C20466AF0F3FF092809D10134A8
:1026A000A0B2A9B26AF0ECFFA0F109035C425C4160
:1026B00000E000246DF054FC1CF04AFD64205CF046
:1026C00037FD6AF0EDFB00E00124204670BDF8B54F
:1026D00041F288305CF02CFD5CF032FDB0EE080A6F
:1026E0005CF036FD054638B36AF0CAFB1CF000FD0D
:1026F0006DF026FCF2206DF03BFC104E41F2707440
:1027000041F6780731787378204643EA01216AF070
:10271000B7FF092806D10134A4B2BC4206F1020673
:10272000F0D100E000256DF01BFC1CF011FD6420D1
:102730005CF0FEFC6AF0B4FB2846F8BD0000001017
:10274000F0B540F6985200215D48ADF5077D10F0D8
:1027500037FC5B4A4FF47A7340F24E5122F8023B49
:1027600001339BB28B42F9D1564A4FF4FA6340F6DB
:10277000880122F8023F01339BB28B42F9D1524AC1
:1027800040F6B83340F6F83122F8023F01339BB2ED
:102790008B42F9D14D4A4FF47A6322F8023F01335C
:1027A0009BB2B3F58D5FF8D1494A41F2707341F69F
:1027B000780122F8023F01339BB28B42F9D16DF0D0
:1027C000BFFBF2206DF0D4FB6AF0A2FE6DF0C8FBF7
:1027D00002AE41F27075344641F678070DF10601FC
:1027E00028466AF065FE58B9BDF8063073700135A9
:1027F000ADB21A0ABD42327006F10206EED138E0DF
:10280000344D354E4FF404720021204610F0D8FBB1
:102810002B68B34203D16A68AB68C4E90123EB6853
:10282000B34203D12A696B69C4E90423AB69B3429B
:1028300004D12A49802209A812F062FAD5F89C3006
:10284000B3420AD126494FF4B4720DF1A90012F037
:1028500057FA95F8A03084F8A030D5F80932B34281
:1028600025D195F80D3284F80D3295F80E3284F8A2
:102870000E32194B2360E360A361C4F89C301E2321
:1028800084F809326B2384F80A326FF0760384F8F7
:102890000B324FF40472052321460E4884F80C32A3
:1028A00012F02EFAFFF713FF0DF5077DF0BD02239E
:1028B00084F80D3222F054F884F80E02D9E700BFF4
:1028C0009C390020663C0020D63D0020563E00206A
:1028D00056420020000000101E6B89051C000010ED
:1028E000A10000101F2902D840F6B83298E6002057
:1028F0007047FF2902D84FF47A6291E600207047B2
:102900001F2903D8006840F6B832A7E600207047B8
:10291000FF2903D800684FF47A629FE600207047D1
:1029200070B5044694B00025461C05F5FA600DF11B
:10293000020180B26AF0BCFD58B9BDF802301A0A33
:1029400004F8152006F815300135B82DEDD1012514
:1029500000E000252046B4F86C6123F051F886426F
:1029600006D0172301A88DF805301BF0D9FD00E033
:102970004DB920461FF034FA044B93F80D226276CD
:1029800093F80E32237014B070BD00BF0000001029
:10299000F8B5044641F288305CF0CAFB5CF0D0FB2D
:1029A000B0EE080A5CF0D4FB064698B36AF068FA09
:1029B0001CF09EFB204623F023F8A4F86C016DF078
:1029C000BFFAF2206DF0D4FA0025671C14F8151038
:1029D00017F8153005F5FA6043EA012180B26AF074
:1029E0004FFE092803D10135B82DEFD100E00026B4
:1029F0006DF0B6FA1CF0ACFB64205CF099FB6AF059
:102A00004FFA054B227883F80E22627E83F80D225E
:102A1000FFF75DFE3046F8BD000000102DE9F041E3
:102A20000F1E41F2883694B0044608BF4FF47A7600
:102A3000002500F1010870190DF1020180B26AF061
:102A400037FD60B9BDF802301A0A04F8152008F8FD
:102A500015300135B5F5B37FEDD1012500E0002536
:102A600039462046B4F8C8625EF0EAFB864206D0DA
:102A7000182301A88DF805301BF052FD00E015B9B0
:102A800020461EF015FF14B0BDE8F0812DE9F0419D
:102A9000044641F288300D465CF04AFB5CF050FB86
:102AA000B0EE080A5CF054FB064690B36AF0E8F911
:102AB0001CF01EFB002D2946204641F2883708BF36
:102AC0004FF47A775EF0BCFBA4F8C8026DF038FAD8
:102AD000F2206DF04DFA002504F1010814F81510EC
:102AE00018F81530781943EA012180B26AF0C8FD60
:102AF000092804D10135B5F5B37FEFD100E00026F8
:102B00006DF02EFA1CF024FB64205CF011FB6AF0DF
:102B1000C7F93046BDE8F0812DE9F04F2DED088B67
:102B200085B0B0EE608AF0EE409AB0EE41AA9A46C7
:102B3000CDE90212814669F09BFA044669F098FAE1
:102B400006465BF01DFB4FF433720146204612F03F
:102B5000D7F84FF433722146304612F0D1F8B94A13
:102B6000C4F8A820B84AC4F89C200023B74A84F8C7
:102B70008D30F7EE00AAA4F88E30C4ED28AA84EDBB
:102B8000248AC4F8942084F8553220465DF088FDEC
:102B90004FF4FA755BF02CFB20B1642017F020F89D
:102BA000013DF7D142F2107017F01AF81CF070FADC
:102BB00001901CF075FAF0EE408A1CF079FA80461C
:102BC0001CF02EFA9FEDA20A00214EF660201CF0A8
:102BD0000FFA5BF0F5FA5BF003FBB0EE690A5CF00C
:102BE00047FC0025B5EE009A012D0FD15BF0F8FAF5
:102BF0005CF036FEB7EE000A5BF052FB78EE087A26
:102C0000944BC4ED247AC4F89C3012E0022D1FD1FD
:102C10005BF0E6FA5CF024FEB7EE000A5BF040FBE6
:102C2000F1EE007A68EE277A0123C4ED247A84F865
:102C30008D305BF0D5FA20465DF032FD42F2107027
:102C400016F0CEFF5BF0CCFAB0EE690A5CF010FC37
:102C50000027BB46B6EE00BA5BF072FBB4EECB0ABF
:102C6000F1EE10FA1AD50A2016F0BAFF5BF068FBF5
:102C7000B4EEC90AF1EE10FA0BF1010B04DB3FB917
:102C8000012060F01DFB03E0BBF5FA6FE4DD3FB10E
:102C900041F288339B4507D00127DDE7DFB90127E3
:102CA0000135032DA0D1B7B99FED690A5CF0E0FBB7
:102CB0004146B0EE680A01981CF09AF930465DF082
:102CC000EFFC5BF085FA204669F002FA304669F0C5
:102CD000FFF90020B1E060F0FBFA5BF081FAB6EE9C
:102CE000000A5CF085FA4FF47A6016F079FF5BF029
:102CF00077FA9FED570A5CF0BBFB00205BF0E0FC2D
:102D00004FF4FA65834600205BF0DAFCA0EB0B0081
:102D1000022806DC0A2016F063FF013DF3D10125ED
:102D200000E0022560F094FA00205BF0C9FC40F658
:102D3000B83B074600205BF0C3FCC01B312806DC13
:102D40000A2016F04DFFBBF1010BF3D100E0013575
:102D5000039860F0C5FACAF8000060F079FA41F211
:102D6000883A89ED000A5BF0EBFAB4EECA0AF1EE9C
:102D700010FA06DD0A2016F033FFBAF1010AF2D18B
:102D800000E001355BF02CFAB0EE4A0A5CF030FA54
:102D900060F05EFA00205BF093FC9FED2D9A834675
:102DA00040F6B83AB0EE49AA00205BF089FCA0EBEF
:102DB0000B0063280CDC5BF003FB0A203AEE00AA50
:102DC00016F00EFFBAF1010A39EE2A9AECD100E0B2
:102DD000013560F03DFAB0EE408A5BF001FA5CF03C
:102DE0003FFDB7EE000A5BF05BFA1B4BD9ED007AB2
:102DF000DB8A9BB238EE678A07EE903AF8EE677A84
:102E0000CAEE099A029B304688EE277A69EE879AC5
:102E1000C3ED009A5DF044FC4146B0EE680A0198AB
:102E20001CF0E6F85BF0D4F9204669F051F9304621
:102E300069F04EF96B1F5842584105B0BDEC088B44
:102E4000BDE8F08F000096430000484200808944AE
:102E5000000000000000A041985901202DE9F04F2A
:102E60002DED0A8B83B0F0EE418AB0EE408AB0EED1
:102E700060AAB0EE619A019069F0FAF8044669F030
:102E8000F7F807465BF07CF94FF4337201462046B1
:102E900011F036FF4FF433722146384611F030FFFF
:102EA000002384F88D30A4F88E309A4BC4F85C323D
:102EB000994BC4F8A830994BC4F89C30F7EE00AA9F
:102EC000974BC4ED28AAC4ED248AC4F89430204658
:102ED0005DF0E6FB4FF4FA755BF08AF920B16420EF
:102EE00016F07EFE013DF7D15BF082F9064618B17F
:102EF00038465DF0D5FB9CE042F2107016F070FE93
:102F00001CF0C6F880461CF0CBF8B0EE40BA1CF0BE
:102F1000CFF881461CF084F89FED820A31464EF6C8
:102F200060201CF065F85BF04BF95BF059F9B0EEEE
:102F3000480A5CF09DFAF6EE009A0025AA4641F296
:102F4000883B5BF0FDF9B4EECA0AF1EE10FA1AD52F
:102F50000A2016F045FE5BF0F3F96AEE297A0AF1D1
:102F6000010AB4EEE70AF1EE10FA04DB3DB90120E4
:102F700060F0A6F903E0BAF5FA6FE2DD35B1DA45A3
:102F800048D00125DDE7002D5BD101250136B31EB8
:102F9000022B03D8DFE803F00C1C3D005BF020F9A6
:102FA0005CF05EFCB7EE000A5BF07AF95E4B0CE079
:102FB0005BF016F95CF054FCB7EE000A5BF070F9B8
:102FC00078EEA87A594BC4ED247AC4F89C3010E00E
:102FD0005BF006F95CF044FCB7EE000A5BF060F9C8
:102FE000F1EE007A68EEA77A0123C4ED247A84F822
:102FF0008D305BF0F5F820465DF052FB42F2107028
:1030000016F0EEFD5BF0ECF8B0EE480A5CF030FA3A
:1030100093E7B5B99FED430A5CF02AFA4946B0EE52
:103020004B0A40461BF0E4FF20465DF039FB5BF0A5
:10303000CFF8204669F04CF8384669F049F8002589
:1030400061E05BF0CDF8B0EE4A0ADFED368ADFF8DA
:10305000F0A09FED37AADFED379A5CF0C9F84FF486
:10306000FA66F0EE68BAB0EE68CAF0EE68CABAF86E
:1030700016309BB208EE103AB8EE488A5BF060F961
:1030800028EE0A8A28EE298AE8EE00CA5BF098F951
:103090003CEE00CA5BF0FCF90A207BEE80BA16F029
:1030A0009FFD013E78EEAA8AE1D14946B0EE4B0A77
:1030B00040461BF09DFF38465DF0F2FA5BF088F861
:1030C0009FED180A5CF0D4F9CBEEA86A019B20466C
:1030D0008CEEA87ACCEE287A29EE669AF0EE006A99
:1030E000A9EE267ADFED146A67EEA67ADFED136AA1
:1030F00067EEA67AC7EE276AC3ED006A68F0E8FFBC
:10310000384668F0E5FF284603B0BDEC0A8BBDE801
:10311000F08F00BF00401C4600009643000048426C
:10312000008089440000000000007A430000A041B4
:103130006740533A74D195415077D63DD7B3DD3FC0
:1031400098590120DFED377A80EEA77AF7EE006A12
:10315000C6EE877A9FED347A67EE877A9FED337AF1
:1031600027EE877AB4EEC07AF1EE10FA0ADB80EE31
:10317000277A82B0FCEEC77ACDED017A9DF8040083
:1031800002B070479FED2A7A27EE877AB4EEC07AB4
:10319000F1EE10FA0EDB37EEA77AC0EE077A9FED5C
:1031A000257A77EEC77AFCEEE77A17EE900A60F0A0
:1031B0007F0018E09FED207A27EE877AB4EEC07A80
:1031C000F1EE10FA11DBB2EE007A27EE877AC0EE4C
:1031D000077A9FED1A7A77EEC77AFCEEE77A17EE58
:1031E000900A60F03F00C0B270479FED157A27EE5D
:1031F000877AB4EEC07AF1EE10FA10DBB3EE007A03
:1032000027EE877AC0EE077A9FED0C7A77EEC77AC1
:10321000FCEEE77A17EE900A60F01F00E3E7FF206C
:10322000704700BF0024744900007A440000FE4249
:1032300000007E43000080420000FC43000000428A
:1032400000007C442DE9F04F2DED108B87B0CDE9C7
:103250000132019A009100231370209BF0EE40AAE6
:10326000F0EE609AF0EE41BAF0EE618AB0EE429A6A
:10327000074613B1209AA94B1360219B13B1219AE1
:10328000A64B1360229B13B1229A002313705AF0AD
:1032900077FFD0ED887AB0EEEABAB4EEE7BAF1EE95
:1032A00010FA12D8F5EEC08AF1EE10FA00F2098396
:1032B0005AF066FFB5EEC09AF1EE10FAD0ED378AFB
:1032C0000ED85AF05DFF90ED359AF5EEC08AF1EE1A
:1032D00010FA02D84FF0000AFAE2B5EEC09A01E007
:1032E000F5EEC08AF1EE10FAF4D9DFED8D7A29EE11
:1032F00027CA28EEA7AA68F0BBFE044668F0B8FE0D
:1033000006465AF03DFF4FF433720146204611F055
:10331000F7FC4FF433722146304611F0F1FC94ED86
:10332000198ADFED807A84ED2ECA28EE278A0223DF
:10333000B4EEE98A84F88E300023F1EE10FA84F8B6
:10334000303184ED2FAA84F85C31204658BFB0EEAE
:10335000698A5DF0A5F94FF4FA755AF049FF28B96A
:103360005AF046FF0546824630B1A0E2642016F0CE
:1033700037FC013DF1D1F3E742F2107016F030FC5A
:103380001BF086FE80461BF08BFEB0EE40AA1BF0C1
:103390008FFEDFED6C9A81461BF042FE2946B0EEAF
:1033A000690A4EF660201BF023FE5AF009FFD4EDA7
:1033B000887AB4EEE7BAF1EE10FA40F353819FED4C
:1033C0005ABAAB465AF00CFF07EE90BAB8EEE70ACD
:1033D000F0EE690A20EE2A0A80EE0B0A5CF048F94A
:1033E0005AF006FF08B1824653E20A200BF1010BA6
:1033F00016F0F6FBBBF1C80FE4D1DFED529A4FF4A3
:103400007A7BB0EE69BAB7EE00CA5AF099FF0A208B
:10341000B0EEC00A3BEE00BA16F0E2FBBBF1010BC6
:1034200079EE8C9AF1D15AF0E3FE8246002840F002
:1034300030828BEE29DA9FED43BA9FED3CEADFED57
:103440003CDADFED3CCAF0EE4B9A5AF079FFB0EE71
:10345000C00AB4EEC80AF1EE10FA40F18B80CBEE50
:103460008E7A79EEA79A5AF0BBFE94F8553213B1D2
:10347000F1EE690A01E0F0EE690AB0EE6A0A5CF06A
:10348000F7F85AF0B5FEC8B14946B0EE4A0A83468D
:1034900040461BF0ADFD5AF09BFE5CF0E1F9B7EE43
:1034A000000A5AF0FDFE30465DF0FAF8204668F05A
:1034B0000FFE304668F00CFEDA4609E20A2016F0EC
:1034C0008FFB5AF03DFFB0EEC00AB4EE40BAF1EE09
:1034D00010FA0AF1010A43F6982348BFB0EE40BA49
:1034E0009A4504D10D4B3B6043F6982A42E0BAF569
:1034F0007A6F37DD6BEE2D7AF4EEC07AF1EE10FACA
:1035000002DD4FF04043EEE76DEE2C7AF4EEC87A20
:10351000F1EE10FA26DD084BE5E700BF000080BFA2
:10352000ABAA26446666663F0000484300007A4422
:103530003333333FCDCC8C3F000040C000803B464E
:103540000000FA43000000005077D63D0AD7A33CA4
:103550000000204235FA8E3C0000C8430000B4430E
:10356000E02E65425FED0B7AF4EEE79AF1EE10FA89
:10357000FFF66BAF42F2107016F032FB43F6982262
:10358000924571D01FED118A42F2107BB0EE48BA1D
:10359000F0EE48AAF0EE48BAF0EE48CA65F010FD29
:1035A0007CEE80CA65F004FD7BEE80BA65F018FC05
:1035B0007AEE80AA65F00CFC01203BEE00BA38EEF2
:1035C0000C8A16F00DFB5AF013FE10B9BBF1010B7B
:1035D000E4D18BEE880A0546CCEE887ACAEE88BA2A
:1035E000CBEE08AA20EE000A1FED297AA7EEA70A63
:1035F00069EE879A09F00CFAB0EE408A2AEEAA0A20
:10360000ABEEAB0A09F004FAA8EEC08A20465FEDE3
:10361000346AC8EE297AE9EE407AC7ED007AC4ED43
:10362000378A84ED359AD7ED007AC4ED387A67EEA3
:10363000A77A86EEA77A84ED397A5DF031F841F207
:10364000883016F0CDFA5AF093FD831E5842584147
:1036500065F096F81FED450A65F0FAF8322016F08D
:10366000BFFA01E0C7ED009A31F082FBB0EE409A5C
:1036700065F036FCF0EE40AA002D40F005811FED0C
:103680004F8A5FED4FEA1FED4FEA5FED4FDABA4622
:1036900037462646209C4FF4FA6BF0EE48FAF0EEDF
:1036A000489AF0EE48CAF0EE488AB0EE48CAF0EE0A
:1036B00048BA65F01DFB20EE2EBA65F069FAB0EE4F
:1036C000C00AB4EECE0AF1EE10FA00F1B18065F056
:1036D00077FCC0EE0B7AB7EE00DA7FEEA7FA65F062
:1036E00017FCB0EE40FA31F043FBF0EE490A68F007
:1036F000F7FDB1EE047AF0EEC07AF4EEC77AF1EE9F
:1037000010FAB0EE40BA19DBF0EE6A0AB0EE4F0ADA
:10371000CDED037A68F0E4FDF0EE40AA31F028FB2D
:103720008AEE8B7ADDED037A78EE878A7CEE8DCA9D
:1037300079EEA79AB0EE409AF0EE4FAAF4EEED9A29
:10374000F1EE10FA67DBF5EEC08AF7EE007AF1EEE3
:1037500010FABFEE000A58BFB0EE670A28EE800AE2
:1037600080EE2C0A09F004FAB0EE40BA31F000FB0A
:10377000F5EEC08AF1EE10FA44BF5FED887A37EEBD
:10378000C00AF0EE4F0A20EE0B0A68F0A9FD5FEDCB
:103790008F7A05A920EE270A04A809F089FDDDED3E
:1037A000047A7BEEA7BADDED057A3CEE27CA5FED21
:1037B000967AF4EEE79AF1EE10FA2CDB55BBD4B111
:1037C000F0EE4C0AB0EE6B0A09F04AF91FED9DFAD3
:1037D0005FED9D7AF0EE4F0A20EE270A08F088FD93
:1037E000B5EEC00AF1EE10FAF0EE407A48BF70EE86
:1037F0000F7AC4ED007A219B0BB183ED00BA229BB6
:1038000043B1F5EEC08AF1EE10FA229A4CBF0123C3
:10381000002313700125012038EE0D8A16F0E0F91F
:103820005AF0E6FC50B9BBF1010B7FF442AF05E062
:1038300034463E4657464FF0000A03E034463E46C3
:1038400057468246029BB5EEC08AF1EE10FA83ED30
:10385000008A08DDCFEE887A009B0122C3ED007A52
:10386000019B1A7002E0009B00221A60D7ED007ADB
:10387000F5EEC07AF1EE10FA02DD019B01221A701A
:10388000BAF1000F05D000E0AA46009B00221A60A2
:103890003A60B0EE4A0A494640461BF0A9FB5AF08E
:1038A00097FC5BF0DDFFB7EE000A5AF0F9FC3046FA
:1038B0005CF0F6FE204668F00BFC304668F008FC31
:1038C00006E0B5EEC09AF1EE10FA3FF60EADF8E460
:1038D000504607B0BDEC108BBDE8F08F2DE9F04FDE
:1038E0002DED068B4FF0FF3389B01360B0EE409A98
:1038F000CDE90001924668F0BBFB054668F0B8FBD5
:1039000004465AF03DFC4FF433720146284611F04C
:10391000F7F94FF433722946204611F0F1F90223EA
:1039200085F88E30002385F83031B14BC5F8B830BA
:103930004FF07E53C5F8BC3028465CF0B1FE4FF422
:10394000FA765AF055FC20B1642016F049F9013E90
:10395000F7D15AF04DFC0646A0BB42F2107016F0AB
:103960003FF91BF095FB80461BF09AFBF0EE408A76
:103970001BF09EFB81461BF053FB31469FED9D0AD9
:103980004EF660201BF034FB5AF01AFC85F85462A6
:1039900028465CF085FE0DF10E0106A8B0EE490A3E
:1039A00066F07EFB064688B1B0EE680A494640469E
:1039B0001BF01EFB5AF00CFC5BF052FFB7EE000A46
:1039C0005AF06EFC20465CF06BFE05E15AF0F8FB05
:1039D0009DF80E20022352B985F8543228465CF037
:1039E0005FFEDFED859A9FED838AB34610E084F891
:1039F000303184F8546206AB04F5987204F59C717A
:103A000013F8010B02F8010F8A42F9D10123B1E04A
:103A10005AF0E6FB07EE90BAB8EEE70AF0EE480A75
:103A200020EE090A80EE290A5BF062FE5AF0E0FB04
:103A30000746C0B14946B0EE680A40461BF0D8FAC6
:103A40005AF0C6FB5BF00CFFB7EE000A5AF028FCF8
:103A500020465CF025FE284668F03AFB204668F0D8
:103A600037FB3E46BEE00A200BF1010B16F0B8F81A
:103A7000BBF57A7FCCD131F07BF9DFED5E9AB0EE09
:103A8000408A07EE907AB42FB8EEE7AA2FD05AF00A
:103A9000A7FBF0EE4A0AB0EE490A5BF029FE5AF0A5
:103AA000A7FB8346C0B14946B0EE680A40461BF00A
:103AB0009FFA5AF08DFB5BF0D3FEB7EE000A5AF086
:103AC000EFFB20465CF0ECFD284668F001FB204649
:103AD00068F0FEFA5E4685E0322016F081F85A2F33
:103AE00003D131F045F9F0EE409A0137C9E731F0E2
:103AF0003FF9F0EE400AB0EE40AAB0EE480A68F096
:103B0000EFFBF0EE4A0AB0EEC08AB0EE690A68F048
:103B1000E7FBB0EE007AB4EEC78AF1EE10FA2CDDC6
:103B2000B6EE007AF0EEC07AE8EE477AB5EE007AAB
:103B300028EE078AF4EEC87AF1EE10FA1DD50DF1E1
:103B40000F0305AA04A90020B0EE490A65F0B8FAEF
:103B50000499C4F8C8100599C4F8D01001229DF842
:103B60000F1084F83021022384F8543284F8CC10EA
:103B70008DF80E20CAF8003009E09DF80E3033B9F8
:103B800084F83031CAF8003001238DF80E304946F0
:103B9000B0EE680A40461BF02BFA5AF019FB5BF0B6
:103BA0005FFEB7EE000A5AF07BFB20465CF078FD22
:103BB0009DF80E3083B1009B3BB15AF0D9FA831EB9
:103BC000594259412046FEF761FF019B23B1002273
:103BD00021460E2054F05CFC284668F079FA204615
:103BE00068F076FA304609B0BDEC068BBDE8F08F80
:103BF0006F12033A0000000000007A449FED117A32
:103C0000D0ED356AD0ED387A20EE070AB7EE007AAB
:103C100087EE006A90ED377A66EE866A26EE077ABE
:103C200067EEA77AC0ED2E6ADFED076A80ED2F7A86
:103C300086EEA77ADFED057A67EE277AC0ED397A4E
:103C4000704700BFBD3786356F12833A0024744930
:10C0000072B6334880F3098840F20000CCF2000099
:10C010004EF63471CEF200010860BFF34F8FBFF3CC
:10C020006F8F40F20000C0F2F0004EF68851CEF261
:10C0300000010860BFF34F8FBFF36F8F4FF0000018
:10C04000E1EE100A4EF63C71CEF2000108600620C7
:10C0500080F31488BFF36F8F0DF032FA17F0D0FA27
:10C060004FF055301B491C4A91423CBF41F8040B2C
:10C07000FAE71A49164A91423CBF41F8040BFAE725
:10C080001749184A184B9A423EBF51F8040B42F820
:10C09000040BF8E700201549154A91423CBF41F8CE
:10C0A000040BFAE70DF014FA124C134DAC4203DA0C
:10C0B00054F8041B8847F9E712F0A2F80F4C104D12
:10C0C000AC4203DA54F8041B8847F9E70DF008BACC
:10C0D00000100020000000200008002000080020C0
:10C0E00030CE0708001000205C17002060170020E9
:10C0F000D0B3012000C0000800C0000800C0000844
:10C1000000C0000800000000000000000000000067
:10C110002DE9F04F2DED108AC1F80CD0D0F80CD0DD
:10C12000BDEC108ABDE8F08F62B62846A04700201B
:10C130000DF07EFD0DF064FC4EF60453CEF20003CC
:10C140004FF080521A6062B6FEE700000000000067
:10C1500038B510EE105A25F00044B4F1A14FF0EEBE
:10C16000407A0DD3B4F1FF4F58D8DFED4F7A9FEDF1
:10C170004F7A002DCCBFB0EE470AB0EE670A38BD4B
:10C180004B4B9C4259D8B4F1445F4AD34FF0FF3235
:10C1900027EEA76A9FED475A9FED477ADFED475A92
:10C1A000DFED474A66EE066A531CA6EE857AE6EE98
:10C1B000A54A9FED445ADFED445AA7EE265AE4EE15
:10C1C000A65A9FED427ADFED424AA5EE267AE5EEC9
:10C1D000A64A9FED405ADFED405AA7EE265A9FED42
:10C1E0003F7AA4EEA67AE5EE265A27EE267AA5EE49
:10C1F000867A27EE877A35D0394B03EB820393EDAD
:10C20000046AD3ED006A37EE467A002D37EE677A7E
:10C2100036EEC70AB3DAB1EE400A38BD30EE000A96
:10C2200038BD9FED307A30EE077AF7EE006AB4EE53
:10C23000E67AF1EE10FAA9DD38BD00F081F82A4B5C
:10C240009C4212D8A3F5D0039C4223D8F0EE007A8A
:10C25000BFEE007AA0EE277A002230EE270AC7EE62
:10C26000007A95E737EEC70A38BD204B9C420BD8C1
:10C27000F7EE087AB7EE007AA0EE277A022230EEC7
:10C28000670AC0EE077A83E7BFEE007AC7EE007A4E
:10C2900003227DE7F7EE007A30EE677A30EE270A68
:10C2A0000122C7EE007A73E7DB0FC9BFDB0FC93F7E
:10C2B000FFFFDF3ED769853C59DA4B3D21A215BD12
:10C2C0006BF16EBD356B883D95879DBD6E2EBA3D79
:10C2D000388EE3BD2549123EABAAAA3ECDCC4CBE5A
:10C2E000400A0708CAF24971FFFF973FFFFF1B4052
:10C2F00008B52DED028BF0EE408AB0EE608A00F0BA
:10C30000DFF8F4EE488AF1EE10FA06D6DFED098A7E
:10C31000B4EE688AF1EE10FA02D0BDEC028B08BDD3
:10C3200006F0BEFE88EEA80ABDEC028B2123036056
:10C3300008BD00BF00000000000000000000000079
:10C3400010EE103A23F0004300EE103A704700BFA1
:10C3500008B52DED028BF0EE408AB0EE608A01F058
:10C3600077F920B9B0EE480ABDEC028B08BDB0EEFB
:10C37000480A01F06DF920B1F4EEC88AF1EE10FA26
:10C38000F0D5B0EE680ABDEC028B08BD00000000DD
:10C3900008B52DED028BB0EE408A01F0A9FCB4EE99
:10C3A000488AF1EE10FA0FD6B5EEC08AF1EE10FA17
:10C3B0000ADCB5EE408AF1EE10FA08D106F070FE04
:10C3C00022239FED090A0360BDEC028B08BD06F035
:10C3D00067FEBDEC028B034621221A600348BDE8CC
:10C3E000084000F015BC00BF000080FF383407088B
:10C3F00008B52DED028BB0EE408A00F0E1F9B4EE05
:10C40000488AF1EE10FAF0EE408A0AD6B0EE480AF9
:10C41000FFF796FFF7EE007AB4EEE70AF1EE10FAB6
:10C4200004DCB0EE680ABDEC028B08BD06F038FEF5
:10C43000BDEC028B034621221A600248BDE8084089
:10C4400000F0E6BB383407080000000000000000E0
:10C45000F8B52DED028B57EC106B55EC114B00F03D
:10C460006FFF3046394622462B46B0EE408AF0EE4A
:10C47000608A03F0ADF930B9002200232046294636
:10C4800003F074F930B9B0EE480AF0EE680ABDEC7A
:10C49000028BF8BD06F004FE00220023212101607A
:10C4A0001046194603F01EF841EC180BB0EE480A8E
:10C4B000F0EE680ABDEC028BF8BD00BF0000000082
:10C4C00030B583B0CDED010A019A22F0004E0EF195
:10C4D000FF33B3F1FF4F42D210EE104A24F0004078
:10C4E000B0F1FF4F3BD270453FDB04F000413ED03E
:10C4F00014F0FF4F02F0FF4558D14FEA002C6FF0C7
:10C500007D034FEA4C0CBCF1000F03F1FF33F8DC64
:10C51000002D5CD14FEA0E226FF07D0C52000CF121
:10C52000FF3CFBD513F17E0F63DA6FF07D02D21A68
:10C5300090406FF07D02A2EB0C020EFA02F2B3EB18
:10C540000C0305D11AE012D04FEA4E00013B15D082
:10C55000A0EB020EBEF1000FF5DA4000F6E7DDEDCC
:10C56000017A60EE277A87EEA70A03B030BD234B2D
:10C5700003EB517393ED000A03B030BD831A48BF3B
:10C5800003461BB9F3E75B000CF1FF3CB3F5000F6A
:10C59000F9DB1CF17E0F23DBA3F500030CF17F0C0C
:10C5A0000B4343EACC5300EE103ADEE7C3157F3B62
:10C5B000002DAFD04FEAEE5EC4F31604AEF17F0C4F
:10C5C00044F40000C2F3160242F40002B7E76FF031
:10C5D0007D044FEAEE5EE41AAEF17F0CA040F1E775
:10C5E0006FF07D02A2EB0C0213410B4300EE103AF8
:10C5F000BBE7C4F3160444F400009AE7600A070896
:10C6000010B52DED028B0446B0EE408A00F040FEDE
:10C6100020B1B5EE408AF1EE10FA04D1B0EE480A2E
:10C62000BDEC028B10BDB0EE480A204600F050F879
:10C63000B0EE408A00F02CFE20B1B5EE408AF1EE5B
:10C6400010FAEBD106F02CFDB0EE480ABDEC028BDF
:10C650002223036010BD00BF0000000000000000A6
:10C6600010EE103A184923F000428A421AD9B2F16A
:10C67000FF4F02D330EE400A704700B583B06846E2
:10C6800001F026F900F003000128DDED010A9DED1F
:10C69000000A10D0022809D090B900F0B1FB03B015
:10C6A0005DF804FBDFED090A00F0AABB00F0A8FB6F
:10C6B000B1EE400AF3E701F0C3F8B1EE400AEEE74D
:10C6C000012001F0BDF8EAE7D80F493F0000000063
:10C6D00010EE103A33F000411A4627D0B1F1FF4F67
:10C6E00021D213F0FF4F22D1DFED2B7A2B4A60EEDF
:10C6F000277A904217EE903A33DB4CF2503CC3F36A
:10C70000C75160451A46A1F1190116DDDFED247A03
:10C71000DFED246A002BB0EE677AB8BFF0EE667AE0
:10C7200027EE870A704730EE000A704770474CF2D8
:10C73000503C60454FEAD151E8DC0144FE29E5DC7C
:10C74000002915DC11F1160F19DB193122F0FF4217
:10C7500042EAC15207EE902A9FED130A27EE800AA3
:10C760007047DFED127A07EE103A27EE270A70477E
:10C7700022F0FF4242EAC15300EE103A7047DFED6B
:10C780000B7ADFED0B6A002BB0EE677AB8BFF0EEE4
:10C79000667A27EE870A70470000004CB03CFFFF26
:10C7A000CAF24971CAF249F1000000336042A20D99
:10C7B0006042A28D000000000000000000000000A8
:10C7C00008B510EE102A22F00043B3F17E5F2DED84
:10C7D000028B12D00AD8B3F17C5F19D2B3F10C5F8F
:10C7E0006AD8BDEC028B9FED760A08BD70EE407AE8
:10C7F00087EEA70ABDEC028B08BDBDEC028B9FED56
:10C80000710ADFED717A002AC8BFB0EE670A08BD71
:10C81000002AC0F28E80F7EE008A38EEC00AF6EEEB
:10C82000007A20EE278AB0EE480A01F081FEDFEDA3
:10C83000677A9FED677ADFED676ADFED675A9FEDF4
:10C84000676AA8EE277ADFED667AE7EE086AE8EE17
:10C85000067AE6EE885A9FED636A9FED637ADFED14
:10C86000636AA5EE886AA7EE887ADFED617AE6EE64
:10C87000087A10EE103AE7EE086A6FF30B03B0EE99
:10C88000677A07EE903AF0EE485AE7EEE75AE6EE9E
:10C89000888A30EE276A27EE087AC5EE866A87EE28
:10C8A000286ABDEC028BB0EE667AA0EE067A37EE0F
:10C8B000870A30EE000A08BD20EE007ADFED437AE9
:10C8C0009FED436ADFED436A9FED445ADFED425A24
:10C8D000A7EE276ABDEC028BE6EE076ADFED407A31
:10C8E0009FED416AE7EE057AE6EE875AA7EE876A82
:10C8F0009FED3C5ADFED3D7ADFED3D6AA5EE875AAC
:10C90000E6EE077AE5EE076AF7EE005AE7EE875A99
:10C9100026EE877A9FED376ADFED377AC7EE256A14
:10C92000B0EE467AA0EE667A30EE470A37EEC00ADD
:10C9300008BDB7EE007A30EE070AF6EE007A60EE38
:10C94000277ADFED226A9FED226ADFED224ADFEDD2
:10C95000235A9FED215A9FED268AA7EEA66ADFEDA6
:10C96000206AE6EE274AE7EEA56ADFED1F5A9FED43
:10C970001D6AA4EEA75AE6EEA75ADFED1C6AA5EEE3
:10C98000276AE5EEA76AA6EE278AA6EEA77A28EE22
:10C99000278AF0EE478AB0EE670A01F0C9FD88EEFB
:10C9A000286A9FED167ADFED167AA0EE067AF0EE91
:10C9B000006A37EE007AE7EE667AB0EE670A19E7AA
:10C9C000DB0FC93FDB0F49400000000008EF1138C2
:10C9D000047F4F3A461124BDA80A4E3E2EC69D3D07
:10C9E000613330BF90B0A6BE2D57014039D119C078
:10C9F000ABAA2A3E6821A233DA0FC93F6821A2B34D
:10CA0000DA0F4940000000000000000000000000B4
:10CA100008B52DED028BB0EE408A01F089FDB4EE31
:10CA2000488AF1EE10FA06D6DFED098AB4EEE88AFC
:10CA3000F1EE10FA02D4BDEC028B08BD06F030FB1B
:10CA400088EEA80ABDEC028B2123036008BD00BF5D
:10CA500000000000000000000000000000000000D6
:10CA600000F046BE000000000000000000000000D2
:10CA700008B52DED028BF0EE408AB0EE608A00F032
:10CA8000E7FD20B9B0EE480ABDEC028B08BDB0EE60
:10CA9000480A00F0DDFD20B1F4EEC88AF1EE10FA8C
:10CAA000F0DDB0EE680ABDEC028B08BD00000000AE
:10CAB00010EE103A114A23F00043934218D9B3F113
:10CAC000FF4F02D330EE400A704700B583B068468E
:10CAD00000F0FEFE400000F00200DDED010A9DEDD9
:10CAE000000AC0F1010001F023F803B05DF804FB77
:10CAF000DFED030A012001F01BB800BFDA0F493F48
:10CB00000000000000000000000000000000000025
:10CB100010EE103A10B423F00042134C02F1FF3C27
:10CB2000A4451CD213F0FF4F19460DD00024D21596
:10CB30007E3A21F0FF41224441F07C5300EE103A4E
:10CB40005DF8044B02607047DFED087A60EE277AEB
:10CB50006FF0180417EE901A21F00042E7E7002268
:10CB60005DF8044B02607047FFFF7F7F0000004CC0
:10CB700010EE103AC3F3C7527F3A162A194615DC55
:10CB8000002A0CDB0C481041184205D04FF48003FA
:10CB900013410B4423EA000300EE103A70470132C0
:10CBA00003F00043F8D143F07E53F5E7802AF3D138
:10CBB00030EE000A704700BFFFFF7F00000000005A
:10CBC00038B52DED028BB0EE418AF0EE618A55EC5E
:10CBD000104B00F085FB30B9B0EE480AF0EE680A61
:10CBE000BDEC028B38BDB0EE480AF0EE680A00F0EA
:10CBF00077FB38B153EC182B2046294602F0C0FDD4
:10CC00000028E9D0BDEC028B45EC104B38BD00BFCD
:10CC10009FED010A704700BF0000C07F00000000C8
:10CC200008B52DED048BB0EE608AB0EE409A01F0AD
:10CC300087FCB4EE488AF1EE10FAF0EE408A0BD68B
:10CC4000B5EE409AF1EE10FA17D1B5EE408AF1EE4A
:10CC500010FA06D1F7EE008AB0EE680ABDEC048B3C
:10CC600008BDB0EE480A00F013FB0028F4D0B5EE82
:10CC7000C08AF1EE10FAEFD525E000F009FB88B18B
:10CC8000F5EE408AF1EE10FAE6D1B0EE490A00F076
:10CC9000FFFA0028E0D0B0EE480A00F0F9FA0028C8
:10CCA000DAD010E0B0EE490A00F0F2FA0028E7D03E
:10CCB000B0EE480A00F0ECFA0028E1D0F4EE688A01
:10CCC000F1EE10FA04D606F0EBF922230360C3E775
:10CCD00006F0E6F921230360BEE700BF0000000074
:10CCE00010EE102AC2F3C7537F3B162B22F00041EF
:10CCF00032DC002B104618DB1A4919410A422AD0AF
:10CD0000DFED197A70EE277AF5EEC07AF1EE10FABF
:10CD100021DD002A04DD4FF4000242FA03F3184437
:10CD200020EA010300EE103A7047DFED0F7A70EE53
:10CD3000277AF5EEC07AF1EE10FA0CDD002A08DB56
:10CD4000DFED0A7A0029B7EE000A08BFB0EE670AE5
:10CD500070479FED070A7047B1F1FF4FFBD330EEEC
:10CD6000000A7047FFFF7F00CAF24971000000000F
:10CD70000000008000000000000000000000000033
:10CD800008B52DED028BB0EE408A01F021FFF0EEE8
:10CD9000408AB0EE480A00F07BFA68B1DFED127A03
:10CDA000B4EEE78AF1EE10FA0BDCDFED107AB4EEA8
:10CDB000E78AF1EE10FA0FD4B0EE680ABDEC028BF0
:10CDC00008BDDFED0B8A06F06BF9B0EE680ABDEC2A
:10CDD000028B2223036008BD06F062F92223DFEDF7
:10CDE000058A0360E8E700BF1772B142B5F1CFC210
:10CDF0000000807F00000000000000000000000034
:10CE000010EE103A23F00043B3F1485F2CD2FDEE50
:10CE1000C07A17EE903A002B60D060EE007A9FED5A
:10CE2000317A9FED315ADFED315A9FED316ADFEDF6
:10CE3000316AA7EE875A9FED307AE7EE855AA7EE62
:10CE4000A56AA7EE867AE7EE876A67EEA66A60EEC5
:10CE5000C00AB6EE007AE7EEA60AB7EE000AD7EEF1
:10CE6000870A30EE600A704760EE007A9FED1D7A07
:10CE70009FED1D5ADFED1D5A9FED1D6ADFED1D6A06
:10CE80001E4AA7EE875A93429FED1B7AE5EE275A7A
:10CE9000A5EEA76AA6EE277AE7EE276A66EEA76AEE
:10CEA000D5D9174A934214D803F17F4307EE103ABD
:10CEB000B7EE006A36EE476A60EEC00AF6EE005A38
:10CEC00097EEA57AE7EEA60A37EE607A36EE470AC5
:10CED0007047B6EE076AB5EE027AEDE7B7EE000AE4
:10CEE000704700BF4ED747ADF6740F317CF293B454
:10CEF000010DD037ABAA2A3D610BB6BA9999993E7C
:10CF00000000483F0000000000000000000000009A
:10CF100010EE102AC2F3C7537F3B162B22F00041BC
:10CF200029DC002B104618DB1A4919410A4221D08E
:10CF3000DFED197A70EE277AF5EEC07AF1EE10FA8D
:10CF400018DD002A04DA4FF4000242FA03F3184411
:10CF500020EA010300EE103A7047DFED0F7A70EE21
:10CF6000277AF5EEC07AF1EE10FA03DD002A08DB2D
:10CF70009FED0A0A7047B1F1FF4FFBD330EE000A74
:10CF80007047DFED077A0029BFEE000A08BFB0EE58
:10CF9000670A7047FFFF7F00CAF249710000000076
:10CFA0000000008000000000000000000000000001
:10CFB00010EE103A194923F000428A421BD9B2F10F
:10CFC000FF4F02D330EE400A704700B583B0684689
:10CFD00000F07EFC00F003000128DDED010A9DED6C
:10CFE000000A13D002280BD098B9012000F028FCC9
:10CFF00003B05DF804FBDFED0A0A002000F020BC5E
:10D00000012000F01DFCB1EE400AF1E7FFF7F8FE49
:10D01000EEE7FFF7F5FEB1EE400AE9E7D80F493F2A
:10D020000000000000000000000000000000000000
:10D0300008B52DED028BB0EE408A00F029F8B4EE71
:10D04000488AF1EE10FAF0EE408A0AD6B0EE480AAD
:10D05000FFF776F9F7EE007AB4EEE70AF1EE10FA90
:10D0600004DCB0EE680ABDEC028B08BD06F018F8CF
:10D07000BDEC028B034621221A600248BDE808403D
:10D08000FFF7C6BD383407080000000000000000AC
:10D0900038B510EE105A25F00044B4F17E5F2DED46
:10D0A000048BF0EE407A7FD077D8B4F17C5F0ED25B
:10D0B000B4F1485F80F092809FED637A30EE077A9A
:10D0C000F7EE006AB4EEE67AF1EE10FA62DCB0EE4A
:10D0D000670AFFF735F9F7EE007A37EEC08AB6EE49
:10D0E000007A28EE078ADFED596A9FED597A9FEDA5
:10D0F000596A9FED595ADFED595ADFED598AE8EE2A
:10D10000076A9FED587AA8EE067A9FED576AA6EE59
:10D11000885AA7EE086A9FED557ADFED556AE5EE6D
:10D12000085AA6EE087AE5EE886AE7EE087AE6EE97
:10D13000888AB0EE480AB0EE679A01F0F9F94D4BD3
:10D140009C4268EE888A3AD810EE103A6FF30B03CF
:10D1500006EE903AA6EEE68A70EE267A88EE895AB6
:10D16000C8EE274A9FED447ADFED447AB0EE006ABC
:10D17000A4EEC67A30EE000AF0EE675A90EE057A19
:10D18000E6EEC65A37EE657A37EEC70A002D01DCA7
:10D19000B1EE400ABDEC048B38BDBDEC048B70EEE3
:10D1A000407A87EEA70A38BDBDEC048B9FED320AAA
:10D1B0009FED337A27EE800AA7EE870A38BD88EE06
:10D1C000896A9FED307ADFED2E7AA0EE060AF0EE46
:10D1D000006AA0EE267A37EEC70AD7E720EE007A7B
:10D1E000DFED1B6A9FED196ADFED1B5A9FED195A9F
:10D1F000DFED1A4AA7EE266ABDEC048BE6EE075A6D
:10D20000DFED186A9FED186AE7EE056AE5EE874ADA
:10D21000A6EE876A9FED165ADFED145ADFED106A0D
:10D22000A4EE875AE6EE075AE5EE076AB7EE006A03
:10D23000A5EE876A26EE877AC7EE066AE0EE267AC2
:10D24000B0EE670A38BD00BFCAF24971047F4F3A99
:10D2500008EF11382EC69D3D461124BDA80A4E3E4A
:10D26000ABAA2A3E613330BF2D57014039D119C0D6
:10D2700090B0A6BE9999793F2EBD3BB3DB0F493FD5
:10D28000DB0FC93F2EBD3B33000000000000000053
:10D2900010EE103A23F00040B0F1FF4FACBF002079
:10D2A00001207047000000000000000000000000A6
:10D2B00038B52DED028B0546B0EE408A0C46FFF7DF
:10D2C00077FEF0EE407AC5ED007AB0EE480AFFF73F
:10D2D000C7F9BDEC028B84ED000A38BD00000000E8
:10D2E00053EC102B002B10460BD0B3F1004F08D09D
:10D2F000104923F00042A2F5801C8C4506D804207A
:10D30000704700280CBF022003207047B3F5801F30
:10D310000DD303F10043B3F5801F08D3064B9A42A7
:10D3200001D000207047B0FA80F040097047032018
:10D33000704700BFFFFFDF7F0000F07F00000000AC
:10D3400053EC112B2DE9F04723F0004852EA080175
:10D3500055EC104B47D0B74925F0004A8A45A946FD
:10D3600041D85042B44E40EA020148EAD171B1427C
:10D37000964638D8C2451F46214605F0004C3EDC93
:10D38000C0F28480A24200F2818000F0B580354274
:10D3900045D1BAF1000F34D1002C234640F32A8145
:10D3A000A64A5B00002B02F1FF32FADCA24B3B40A5
:10D3B000002B40F09380B8F1000F40F0DF80BEF109
:10D3C000000F73466DDC9D4E9D48801A1F2800F3A8
:10D3D000F08002F21E4321FA03F30AFA00FA43EA4C
:10D3E0000A0381406AE02046294601F051FF0246C7
:10D3F0000B4602F077F841EC100BBDE8F0873542A0
:10D400000DD18F4A4FEACA235B00002B02F1FF3295
:10D41000CCDD5B00002B02F1FF32F5DCC6E7864B6A
:10D420004FEA2A523B40A2F2FF3293B34FEA285010
:10D43000C9F31303A0F2FF3643F48013A1EB0E00EF
:10D44000C7F3130545F48015921B0BD163E0013837
:10D4500058D4A1EB0E04E30F013A03EB40034FEA6B
:10D46000440156D07145A3EB0500F0D30028A1EB91
:10D470000E0447DB50EA0403EDD1724B4FEADC7C2B
:10D4800003EBCC0393ED000BBDE8F08745EC104BAC
:10D49000B3E7B8F1000F71D1BEF1000F734640F34E
:10D4A000B480664E5B00002B06F1FF36FADC644B5D
:10D4B0009A4289DBC9F3130343F48013604CA41B25
:10D4C0001F2C4CDC06F21E452EFA05F508FA04F076
:10D4D0000EFA04FE0543A1EB0E00B5E7584CA41A62
:10D4E0004FEA28581F2CA8F2FF3672DD564B9B1AC4
:10D4F00001FA03F30021A3E7524B03EB1C7393EDF6
:10D50000000B7AE7C80F013A00EB43034FEA4101F1
:10D51000A8D1A1EB0E005A1B8E4588BF02F1FF3245
:10D52000002ABCBF08461A4652EA000305D1A4E708
:10D53000C30F03EB42024000013EB2F5801FF7DB50
:10D540003F4B9E4223DBA2F5801242EA0C0106F219
:10D55000FF3641EA0653024643EC102B4DE73A4DA5
:10D56000921BA5EB06050EFA05F518BF4FF0000E4D
:10D570007FF478AF5A1B0846D2E7304A304E4FEA64
:10D58000C8235B00002B06F1FF36FADC8FE79B1BFC
:10D59000142B14DC06F21E41D84002FA01F142FAC3
:10D5A00003F3014343EA0C0C63460A4643EC102B99
:10D5B00023E7254B9B1A01FA03F300217EE71F2B7B
:10D5C00013DC06F21E4120FA03F302FA01F11943BB
:10D5D000EAE702F21E4321FA03F30AFA04FA43EAE5
:10D5E0000A03A140A1EB0E002AE71749891B42FA62
:10D5F00001F1D9E7104B3B407BB14FEA28500F4A6D
:10D60000A0F2FF36E30A6105ECE7C9F313030B4E02
:10D6100043F480130B25152456E7B8F1000FACD165
:10D62000BEF1000F054A73463FF73BAF1520164683
:10D63000CFE600BFFFFFEF7F0000F07FEDFBFFFFB5
:10D6400002FCFFFF700A0708E2FBFFFF000000007A
:10D6500010EE103A33F000400ED0A0F50003B3F105
:10D66000FE4F0DD3074B421E9A4207D9A0F1FF404F
:10D67000B0FA80F0400970470220704703207047DD
:10D6800004207047FEFF7F00000000000000000043
:10D6900008B52DED028BB0EE408A01F0D1FBB4EE5F
:10D6A000488AF1EE10FA0FD6B5EEC08AF1EE10FA04
:10D6B0000AD8B5EE408AF1EE10FA08D105F0F0FC78
:10D6C00022239FED090A0360BDEC028B08BD05F023
:10D6D000E7FCBDEC028B034621221A600348BDE83B
:10D6E0000840FFF795BA00BF000080FF38340708F4
:10D6F00010B582B0CDED010A019B23F00042B2F1DA
:10D70000FF4FF0EE407A30D810EE100A20F00041C2
:10D71000B1F1FF4F29D8B3F17E5F42D09C1704F0DE
:10D72000020444EAD07431B37AB3B2F1FF4F40D06F
:10D73000B1F1FF4F29D0891AB1F1F45F4FEAE152FC
:10D7400034DA002B42DA3C3240DA9FED340A012C05
:10D750004ED0022C43D064B19FED317ADFED317AA7
:10D7600030EE070A30EE670A03E09DED017A37EEEE
:10D77000270A02B010BD022C10D09FED2B7A032C8B
:10D7800008BFB0EE470A02B010BD9FED280ADFEDDA
:10D79000287A0028A8BFB0EE670AEAE79FED210AC1
:10D7A000E7E702B0BDE81040FEF7D2BC9FED200ACB
:10D7B000CDE7B1F1FF4F04F1FF3420D0022C26D881
:10D7C0001C4B03EB840393ED030AD2E79DED017A32
:10D7D00087EE870AFEF7B4FDFEF7BAFCB7E79FEDC8
:10D7E000107ADFED107A30EE070A37EEC00AC0E794
:10D7F00010EE103A03F1004300EE103AB9E7022CA4
:10D8000008D80C4B03EB840393ED000AB1E79FEDBE
:10D81000030AAEE79FED080AABE700BF0000000077
:10D820002EBDBB33DB0F4940DB0F49C0DB0FC9BF47
:10D83000DB0FC93F800A0708DB0F493F00000000EB
:10D8400010EE103A23F00043B3F1485F04D2FDEE2E
:10D85000C07A17EE903A5BB360EE007A9FED157ACE
:10D86000DFED155A9FED156ADFED156AE7EE875A71
:10D870009FED147AA5EEA76A20EE275AE6EE276AF6
:10D88000A6EEA77A30B9DFED106AE7EE876AA6EE5A
:10D89000850A704727EE457AF6EE006AA0EEA67A72
:10D8A000DFED0A6AD7EE270AE5EE260A30EE600AB7
:10D8B000704700BFD3C92E2F342FD7B21BEF383695
:10D8C000010D50B98988083CABAA2ABEABAA2A3EF2
:10D8D00070B510EE103A884A23F00044944286B0A6
:10D8E000054671D9854A94421E4624D823F0004249
:10D8F000002BDFED837A834922F00F02B0EE407AED
:10D9000040F3E0808A4270EE677A09BF9FED7E7A2D
:10D91000DFED7E6ADFED7E6A77EEC77A37EEE67A74
:10D9200077EEC77A80ED007A77EEE67AC0ED017A7D
:10D93000012006B070BD774A944252D9B4F1FF4F2E
:10D9400048D2E215863AA4EBC25307EE903ABDEEF8
:10D95000E77ADFED716AB8EEC77A77EEC77A8DEDB8
:10D96000037A67EEA67ABDEEE77AB8EEC77A77EE6D
:10D97000C77A8DED047A67EEA67AF5EE407AF1EE7D
:10D9800010FACDED057A40F09880B5EE407AF1EED0
:10D9900010FA0CBF0123022360490191022100917A
:10D9A00003A8294600F0A4FA002EC2DA95ED007A09
:10D9B000D5ED017AB1EE477AF1EE677A85ED007A1E
:10D9C000C5ED017A4042B4E7002285ED000A4260CD
:10D9D0000020AEE770EE407AC0ED017AC0ED007A2B
:10D9E000F6E7FEF7ADFC9FED4E7A9FED456AF6EE49
:10D9F000007AE0EE077A9FED457AFDEEE77A17EEC2
:10DA0000900AF8EEE76A1F28A6EEC60A66EE877A45
:10DA1000B1EE666A20DC434A411E26F0004352F80C
:10DA2000212023F0FF03934216D030EE677A30EEC8
:10DA3000470A002E30EE670A85ED007A85ED010A6F
:10DA4000BFF677AFB1EE477AB1EE400A85ED007AC6
:10DA500085ED010A40426CE730EE677AE21517EE79
:10DA6000103AC3F3C753C3EBD453082BDFDD9FED4C
:10DA7000267A9FED275AF0EE405AE6EE075A70EEEE
:10DA8000657AE6EE077AD6EE857A35EEE77A17EE16
:10DA9000103AC3F3C753D21A192A10DD9FED227A28
:10DAA0009FED225AB0EE650AA6EE070A75EEC07A1F
:10DAB000E6EE077AD6EE857AB7E703236CE7B0EE99
:10DAC000650AB4E78A4270EE277A09BF9FED0E7AA5
:10DAD000DFED0E6ADFED0E6A77EE877A37EEA67A13
:10DAE00077EEC77A80ED007A77EEA67AC0ED017AFC
:10DAF0004FF0FF301DE700BFD80F493FE3CB164082
:10DB0000800FC93FD00FC93F0044353743443537F4
:10DB100008A3852E800F494300008043200B07088F
:10DB200084F9223FA00A070800A3852E32318D24F4
:10DB300008B510EE103A23F00042B2F1465FF0EE65
:10DB4000407A0FD2BDEEC07A17EE101AF9B9431C15
:10DB5000134300F09F80012803D0BFEE007A87EEC8
:10DB6000270A08BD50498A4211D39FED507ADFED54
:10DB7000506A002BBCBFF1EE600AF1EE407A77EEFE
:10DB8000677A36EEE07ADFED4B0A77EE277A67EEBA
:10DB9000A76ADFED494ADFED495A9FED495A9FEDEB
:10DBA000496A414926EEA67A8A42E7EE245AA7EE50
:10DBB000056ADFED454A9FED455AE5EE874AA6EE38
:10DBC000075ADFED435A9FED436AE4EE875AA5EE0C
:10DBD000076ADFED414A9FED415AE5EE874AA6EE1E
:10DBE000075A9FED3F6ADFED3F5AA4EE876AE5EEE4
:10DBF000075AB0EE467AA5EEA67A27EEA65AB0EE00
:10DC0000606AA7EE056ADFED384AE6EE260AE5EE21
:10DC1000240A37EEA00A1FD20128A2D0BFEE007A54
:10DC2000C7EE006A314B10EE102A1A4006EE102A99
:10DC300016EE902A76EE677A134000EE103AB7EEB1
:10DC4000007A70EEE70AF0EE477AE6EE007AE0EE50
:10DC5000807AA7EEA60A08BD07EE100AB8EEC77ACA
:10DC600060EE006A30EE070A9B1786EE806A03F0CA
:10DC70000203C3F10103F0EE005A36EE606A06EECD
:10DC8000903A77EEC67AF8EEE66AA7EEE57A26EEE7
:10DC9000870A08BDFEF754FBB7EE007AF0EE407A33
:10DCA00087EE270A08BD00BF40A12C3FDA0F493F8D
:10DCB00068212233000000005FAE9BB745F4A33813
:10DCC0008453D9377AC09538C8261A3AB93781397A
:10DCD00016696B3B48DEBE3AA427B33C1F37113CA4
:10DCE0008988083ED10D5D3DABAAAA3E00F0FFFF3A
:10DCF00010EE102A32F000432FD0002A134633DBF7
:10DD0000B2F1FF4F40DAB2F5000F34DB4FF0000CF8
:10DD10006448C3F31601084400F4000282F07E5206
:10DD20000A43DB1500EE102A7F3B5F4A634401F192
:10DD30000F0CF7EE007A0CEA020230EE670A03EBF2
:10DD4000D05322BBB5EE400AF1EE10FA62D1002B9F
:10DD500040F090809FED550A70479FED557ADFEDBA
:10DD6000537A87EE270A704770EE407A9FED4F7A1C
:10DD700087EE870A7047DFED4F7A60EE277A6FF003
:10DD8000180C17EE903AC3E730EE000A7047F0EE39
:10DD9000007A70EE277A07EE103A80EE274A46485E
:10DDA000C1F55712084402F522720243002A9FED82
:10DDB000433ADFED434ADFED435ADFED433A9FED4F
:10DDC000435ADFED437ADFED436A24EE046AF8EE4E
:10DDD000C72A26EE067AE7EE034AA7EE235AE4EEB8
:10DDE000875AE5EE076AE5EE877A67EE867AE6EE11
:10DDF000877A2ADDB6EE007A20EE077A27EE007ADF
:10DE000077EE877A67EE847A3BBB37EE677A30EE3F
:10DE1000470A70479FED307AF6EE007AE0EE477AD7
:10DE200020EE007A27EE277A002BF0D007EE903A0A
:10DE30009FED2A6ADFED2A6AF8EEE77AA7EEC67A46
:10DE400037EE400A97EEA60A704770EE677A67EEE3
:10DE5000847AE3B930EE670A70479FED206ADFED00
:10DE6000206AE2EE867A37EE677A37EE400A92EE63
:10DE7000A60A704707EE903A9FED180A9FED187AB0
:10DE8000F8EEE77A27EE800AA7EE870A7047DFED03
